{
  "_format": "hh-sol-artifact-1",
  "contractName": "RoyaltiesV1Impl",
  "sourceName": "contracts/rarible/impl/RoyaltiesV1Impl.sol",
  "abi": [
    {
      "anonymous": false,
      "inputs": [
        {
          "indexed": false,
          "internalType": "uint256",
          "name": "tokenId",
          "type": "uint256"
        },
        {
          "indexed": false,
          "internalType": "address[]",
          "name": "recipients",
          "type": "address[]"
        },
        {
          "indexed": false,
          "internalType": "uint256[]",
          "name": "bps",
          "type": "uint256[]"
        }
      ],
      "name": "SecondarySaleFees",
      "type": "event"
    },
    {
      "inputs": [
        {
          "internalType": "uint256",
          "name": "tokenId",
          "type": "uint256"
        }
      ],
      "name": "getFeeBps",
      "outputs": [
        {
          "internalType": "uint256[]",
          "name": "",
          "type": "uint256[]"
        }
      ],
      "stateMutability": "view",
      "type": "function"
    },
    {
      "inputs": [
        {
          "internalType": "uint256",
          "name": "tokenId",
          "type": "uint256"
        }
      ],
      "name": "getFeeRecipients",
      "outputs": [
        {
          "internalType": "address payable[]",
          "name": "",
          "type": "address[]"
        }
      ],
      "stateMutability": "view",
      "type": "function"
    },
    {
      "inputs": [
        {
          "internalType": "uint256",
          "name": "",
          "type": "uint256"
        },
        {
          "internalType": "uint256",
          "name": "",
          "type": "uint256"
        }
      ],
      "name": "royalties",
      "outputs": [
        {
          "internalType": "address payable",
          "name": "account",
          "type": "address"
        },
        {
          "internalType": "uint96",
          "name": "value",
          "type": "uint96"
        }
      ],
      "stateMutability": "view",
      "type": "function"
    }
  ],
  "bytecode": "0x608060405234801561001057600080fd5b506104b4806100206000396000f3fe608060405234801561001057600080fd5b50600436106100415760003560e01c80630ebd4c7f146100465780638924af741461006f578063b9c4d9fb146100a9575b600080fd5b6100596100543660046103c2565b6100c9565b6040516100669190610448565b60405180910390f35b61008261007d3660046103da565b610223565b604080516001600160a01b0390931683526001600160601b03909116602083015201610066565b6100bc6100b73660046103c2565b61026c565b60405161006691906103fb565b600081815260208181526040808320805482518185028101850190935280835260609493849084015b8282101561014157600084815260209081902060408051808201909152908401546001600160a01b0381168252600160a01b90046001600160601b0316818301528252600190920191016100f2565b5050505090506000815167ffffffffffffffff81111561017157634e487b7160e01b600052604160045260246000fd5b60405190808252806020026020018201604052801561019a578160200160208202803683370190505b50905060005b825181101561021b578281815181106101c957634e487b7160e01b600052603260045260246000fd5b6020026020010151602001516001600160601b03168282815181106101fe57634e487b7160e01b600052603260045260246000fd5b60209081029190910101528061021381610480565b9150506101a0565b509392505050565b6000602052816000526040600020818154811061023f57600080fd5b6000918252602090912001546001600160a01b0381169250600160a01b90046001600160601b0316905082565b600081815260208181526040808320805482518185028101850190935280835260609493849084015b828210156102e457600084815260209081902060408051808201909152908401546001600160a01b0381168252600160a01b90046001600160601b031681830152825260019092019101610295565b5050505090506000815167ffffffffffffffff81111561031457634e487b7160e01b600052604160045260246000fd5b60405190808252806020026020018201604052801561033d578160200160208202803683370190505b50905060005b825181101561021b5782818151811061036c57634e487b7160e01b600052603260045260246000fd5b60200260200101516000015182828151811061039857634e487b7160e01b600052603260045260246000fd5b6001600160a01b0390921660209283029190910190910152806103ba81610480565b915050610343565b6000602082840312156103d3578081fd5b5035919050565b600080604083850312156103ec578081fd5b50508035926020909101359150565b6020808252825182820181905260009190848201906040850190845b8181101561043c5783516001600160a01b031683529284019291840191600101610417565b50909695505050505050565b6020808252825182820181905260009190848201906040850190845b8181101561043c57835183529284019291840191600101610464565b60006000198214156104a057634e487b7160e01b81526011600452602481fd5b506001019056fea164736f6c6343000804000a",
  "linkReferences": {},
  "deployedLinkReferences": {}
}