{
  "_format": "hh-sol-artifact-1",
  "contractName": "MockMinter",
  "sourceName": "contracts/mocks/MockMinter.sol",
  "abi": [
    {
      "inputs": [
        {
          "internalType": "address",
          "name": "_inflow1155BC",
          "type": "address"
        },
        {
          "internalType": "address",
          "name": "_socialToken",
          "type": "address"
        },
        {
          "internalType": "address",
          "name": "_collateral",
          "type": "address"
        }
      ],
      "stateMutability": "nonpayable",
      "type": "constructor"
    },
    {
      "inputs": [
        {
          "internalType": "address",
          "name": "spender",
          "type": "address"
        },
        {
          "internalType": "uint256",
          "name": "amount",
          "type": "uint256"
        }
      ],
      "name": "approveCollateral",
      "outputs": [],
      "stateMutability": "nonpayable",
      "type": "function"
    },
    {
      "inputs": [],
      "name": "collateral",
      "outputs": [
        {
          "internalType": "contract IERC20",
          "name": "",
          "type": "address"
        }
      ],
      "stateMutability": "view",
      "type": "function"
    },
    {
      "inputs": [],
      "name": "inflow1155BC",
      "outputs": [
        {
          "internalType": "contract IInflow1155BC",
          "name": "",
          "type": "address"
        }
      ],
      "stateMutability": "view",
      "type": "function"
    },
    {
      "inputs": [
        {
          "internalType": "uint256",
          "name": "tokenId",
          "type": "uint256"
        }
      ],
      "name": "mint",
      "outputs": [],
      "stateMutability": "nonpayable",
      "type": "function"
    },
    {
      "inputs": [
        {
          "internalType": "address",
          "name": "",
          "type": "address"
        },
        {
          "internalType": "address",
          "name": "",
          "type": "address"
        },
        {
          "internalType": "uint256[]",
          "name": "",
          "type": "uint256[]"
        },
        {
          "internalType": "uint256[]",
          "name": "",
          "type": "uint256[]"
        },
        {
          "internalType": "bytes",
          "name": "",
          "type": "bytes"
        }
      ],
      "name": "onERC1155BatchReceived",
      "outputs": [
        {
          "internalType": "bytes4",
          "name": "",
          "type": "bytes4"
        }
      ],
      "stateMutability": "nonpayable",
      "type": "function"
    },
    {
      "inputs": [
        {
          "internalType": "address",
          "name": "",
          "type": "address"
        },
        {
          "internalType": "address",
          "name": "",
          "type": "address"
        },
        {
          "internalType": "uint256",
          "name": "",
          "type": "uint256"
        },
        {
          "internalType": "uint256",
          "name": "",
          "type": "uint256"
        },
        {
          "internalType": "bytes",
          "name": "",
          "type": "bytes"
        }
      ],
      "name": "onERC1155Received",
      "outputs": [
        {
          "internalType": "bytes4",
          "name": "",
          "type": "bytes4"
        }
      ],
      "stateMutability": "nonpayable",
      "type": "function"
    },
    {
      "inputs": [],
      "name": "socialToken",
      "outputs": [
        {
          "internalType": "contract ISocialToken",
          "name": "",
          "type": "address"
        }
      ],
      "stateMutability": "view",
      "type": "function"
    },
    {
      "inputs": [
        {
          "internalType": "bytes4",
          "name": "interfaceId",
          "type": "bytes4"
        }
      ],
      "name": "supportsInterface",
      "outputs": [
        {
          "internalType": "bool",
          "name": "",
          "type": "bool"
        }
      ],
      "stateMutability": "view",
      "type": "function"
    }
  ],
  "bytecode": "0x608060405234801561001057600080fd5b50604051610a39380380610a3983398101604081905261002f9161008d565b600080546001600160a01b039485166001600160a01b0319918216179091556001805493851693821693909317909255600280549190931691161790556100cf565b80516001600160a01b038116811461008857600080fd5b919050565b6000806000606084860312156100a1578283fd5b6100aa84610071565b92506100b860208501610071565b91506100c660408501610071565b90509250925092565b61095b806100de6000396000f3fe608060405234801561001057600080fd5b50600436106100885760003560e01c8063a0712d681161005b578063a0712d6814610108578063bc197c811461011b578063d8dfeb4514610153578063f23a6e611461016657600080fd5b806301ffc9a71461008d5780632cc89490146100b55780636a1be7c6146100e057806399409ae1146100f5575b600080fd5b6100a061009b366004610830565b610185565b60405190151581526020015b60405180910390f35b6000546100c8906001600160a01b031681565b6040516001600160a01b0390911681526020016100ac565b6100f36100ee3660046107e7565b6101bc565b005b6001546100c8906001600160a01b031681565b6100f3610116366004610858565b6101d7565b61013a6101293660046106de565b63bc197c8160e01b95945050505050565b6040516001600160e01b031990911681526020016100ac565b6002546100c8906001600160a01b031681565b61013a610174366004610784565b63f23a6e6160e01b95945050505050565b60006001600160e01b03198216630271189760e51b14806101b657506301ffc9a760e01b6001600160e01b03198316145b92915050565b6002546101d3906001600160a01b03168383610238565b5050565b60005460405163140e25ad60e31b8152600481018390526001600160a01b039091169063a0712d6890602401600060405180830381600087803b15801561021d57600080fd5b505af1158015610231573d6000803e3d6000fd5b5050505050565b8015806102c15750604051636eb1769f60e11b81523060048201526001600160a01b03838116602483015284169063dd62ed3e9060440160206040518083038186803b15801561028757600080fd5b505afa15801561029b573d6000803e3d6000fd5b505050506040513d601f19601f820116820180604052508101906102bf9190610870565b155b6103315760405162461bcd60e51b815260206004820152603660248201527f5361666545524332303a20617070726f76652066726f6d206e6f6e2d7a65726f60448201527520746f206e6f6e2d7a65726f20616c6c6f77616e636560501b60648201526084015b60405180910390fd5b604080516001600160a01b038416602482015260448082018490528251808303909101815260649091019091526020810180516001600160e01b031663095ea7b360e01b179052610383908490610388565b505050565b60006103dd826040518060400160405280602081526020017f5361666545524332303a206c6f772d6c6576656c2063616c6c206661696c6564815250856001600160a01b031661045a9092919063ffffffff16565b80519091501561038357808060200190518101906103fb9190610810565b6103835760405162461bcd60e51b815260206004820152602a60248201527f5361666545524332303a204552433230206f7065726174696f6e20646964206e6044820152691bdd081cdd58d8d9595960b21b6064820152608401610328565b60606104698484600085610473565b90505b9392505050565b6060824710156104d45760405162461bcd60e51b815260206004820152602660248201527f416464726573733a20696e73756666696369656e742062616c616e636520666f6044820152651c8818d85b1b60d21b6064820152608401610328565b843b6105225760405162461bcd60e51b815260206004820152601d60248201527f416464726573733a2063616c6c20746f206e6f6e2d636f6e74726163740000006044820152606401610328565b600080866001600160a01b0316858760405161053e9190610888565b60006040518083038185875af1925050503d806000811461057b576040519150601f19603f3d011682016040523d82523d6000602084013e610580565b606091505b509150915061059082828661059b565b979650505050505050565b606083156105aa57508161046c565b8251156105ba5782518084602001fd5b8160405162461bcd60e51b815260040161032891906108a4565b80356001600160a01b03811681146105eb57600080fd5b919050565b600082601f830112610600578081fd5b8135602067ffffffffffffffff82111561061c5761061c610938565b8160051b61062b8282016108d7565b838152828101908684018388018501891015610645578687fd5b8693505b85841015610667578035835260019390930192918401918401610649565b50979650505050505050565b600082601f830112610683578081fd5b813567ffffffffffffffff81111561069d5761069d610938565b6106b0601f8201601f19166020016108d7565b8181528460208386010111156106c4578283fd5b816020850160208301379081016020019190915292915050565b600080600080600060a086880312156106f5578081fd5b6106fe866105d4565b945061070c602087016105d4565b9350604086013567ffffffffffffffff80821115610728578283fd5b61073489838a016105f0565b94506060880135915080821115610749578283fd5b61075589838a016105f0565b9350608088013591508082111561076a578283fd5b5061077788828901610673565b9150509295509295909350565b600080600080600060a0868803121561079b578081fd5b6107a4866105d4565b94506107b2602087016105d4565b93506040860135925060608601359150608086013567ffffffffffffffff8111156107db578182fd5b61077788828901610673565b600080604083850312156107f9578182fd5b610802836105d4565b946020939093013593505050565b600060208284031215610821578081fd5b8151801515811461046c578182fd5b600060208284031215610841578081fd5b81356001600160e01b03198116811461046c578182fd5b600060208284031215610869578081fd5b5035919050565b600060208284031215610881578081fd5b5051919050565b6000825161089a818460208701610908565b9190910192915050565b60208152600082518060208401526108c3816040850160208701610908565b601f01601f19169190910160400192915050565b604051601f8201601f1916810167ffffffffffffffff8111828210171561090057610900610938565b604052919050565b60005b8381101561092357818101518382015260200161090b565b83811115610932576000848401525b50505050565b634e487b7160e01b600052604160045260246000fdfea164736f6c6343000804000a",
  "linkReferences": {},
  "deployedLinkReferences": {}
}