{
  "_format": "hh-sol-artifact-1",
  "contractName": "Inflow721",
  "sourceName": "contracts/token/nft/Inflow721.sol",
  "abi": [
    {
      "inputs": [],
      "stateMutability": "nonpayable",
      "type": "constructor"
    },
    {
      "anonymous": false,
      "inputs": [
        {
          "indexed": true,
          "internalType": "address",
          "name": "owner",
          "type": "address"
        },
        {
          "indexed": true,
          "internalType": "address",
          "name": "approved",
          "type": "address"
        },
        {
          "indexed": true,
          "internalType": "uint256",
          "name": "tokenId",
          "type": "uint256"
        }
      ],
      "name": "Approval",
      "type": "event"
    },
    {
      "anonymous": false,
      "inputs": [
        {
          "indexed": true,
          "internalType": "address",
          "name": "owner",
          "type": "address"
        },
        {
          "indexed": true,
          "internalType": "address",
          "name": "operator",
          "type": "address"
        },
        {
          "indexed": false,
          "internalType": "bool",
          "name": "approved",
          "type": "bool"
        }
      ],
      "name": "ApprovalForAll",
      "type": "event"
    },
    {
      "anonymous": false,
      "inputs": [
        {
          "indexed": true,
          "internalType": "address",
          "name": "previousOwner",
          "type": "address"
        },
        {
          "indexed": true,
          "internalType": "address",
          "name": "newOwner",
          "type": "address"
        }
      ],
      "name": "OwnershipTransferred",
      "type": "event"
    },
    {
      "anonymous": false,
      "inputs": [
        {
          "indexed": false,
          "internalType": "uint256",
          "name": "tokenId",
          "type": "uint256"
        },
        {
          "components": [
            {
              "internalType": "address payable",
              "name": "account",
              "type": "address"
            },
            {
              "internalType": "uint96",
              "name": "value",
              "type": "uint96"
            }
          ],
          "indexed": false,
          "internalType": "struct LibPart.Part[]",
          "name": "royalties",
          "type": "tuple[]"
        }
      ],
      "name": "RoyaltiesSet",
      "type": "event"
    },
    {
      "anonymous": false,
      "inputs": [
        {
          "indexed": true,
          "internalType": "address",
          "name": "from",
          "type": "address"
        },
        {
          "indexed": true,
          "internalType": "address",
          "name": "to",
          "type": "address"
        },
        {
          "indexed": true,
          "internalType": "uint256",
          "name": "tokenId",
          "type": "uint256"
        }
      ],
      "name": "Transfer",
      "type": "event"
    },
    {
      "anonymous": false,
      "inputs": [
        {
          "indexed": true,
          "internalType": "address",
          "name": "account",
          "type": "address"
        }
      ],
      "name": "Unwhitelisted",
      "type": "event"
    },
    {
      "anonymous": false,
      "inputs": [
        {
          "indexed": true,
          "internalType": "address",
          "name": "account",
          "type": "address"
        }
      ],
      "name": "Whitelisted",
      "type": "event"
    },
    {
      "inputs": [
        {
          "internalType": "address",
          "name": "to",
          "type": "address"
        },
        {
          "internalType": "uint256",
          "name": "tokenId",
          "type": "uint256"
        }
      ],
      "name": "approve",
      "outputs": [],
      "stateMutability": "nonpayable",
      "type": "function"
    },
    {
      "inputs": [
        {
          "internalType": "address",
          "name": "owner",
          "type": "address"
        }
      ],
      "name": "balanceOf",
      "outputs": [
        {
          "internalType": "uint256",
          "name": "",
          "type": "uint256"
        }
      ],
      "stateMutability": "view",
      "type": "function"
    },
    {
      "inputs": [],
      "name": "baseUri",
      "outputs": [
        {
          "internalType": "string",
          "name": "",
          "type": "string"
        }
      ],
      "stateMutability": "view",
      "type": "function"
    },
    {
      "inputs": [
        {
          "internalType": "uint256",
          "name": "tokenId",
          "type": "uint256"
        }
      ],
      "name": "burn",
      "outputs": [],
      "stateMutability": "nonpayable",
      "type": "function"
    },
    {
      "inputs": [
        {
          "internalType": "uint256",
          "name": "tokenId",
          "type": "uint256"
        }
      ],
      "name": "getApproved",
      "outputs": [
        {
          "internalType": "address",
          "name": "",
          "type": "address"
        }
      ],
      "stateMutability": "view",
      "type": "function"
    },
    {
      "inputs": [
        {
          "internalType": "uint256",
          "name": "tokenId",
          "type": "uint256"
        }
      ],
      "name": "getRoyalties",
      "outputs": [
        {
          "components": [
            {
              "internalType": "address payable",
              "name": "account",
              "type": "address"
            },
            {
              "internalType": "uint96",
              "name": "value",
              "type": "uint96"
            }
          ],
          "internalType": "struct LibPart.Part[]",
          "name": "",
          "type": "tuple[]"
        }
      ],
      "stateMutability": "view",
      "type": "function"
    },
    {
      "inputs": [
        {
          "internalType": "address",
          "name": "owner",
          "type": "address"
        },
        {
          "internalType": "address",
          "name": "operator",
          "type": "address"
        }
      ],
      "name": "isApprovedForAll",
      "outputs": [
        {
          "internalType": "bool",
          "name": "",
          "type": "bool"
        }
      ],
      "stateMutability": "view",
      "type": "function"
    },
    {
      "inputs": [
        {
          "internalType": "address",
          "name": "account",
          "type": "address"
        }
      ],
      "name": "isWhitelisted",
      "outputs": [
        {
          "internalType": "bool",
          "name": "",
          "type": "bool"
        }
      ],
      "stateMutability": "view",
      "type": "function"
    },
    {
      "inputs": [
        {
          "internalType": "string",
          "name": "uri_",
          "type": "string"
        },
        {
          "components": [
            {
              "internalType": "address payable",
              "name": "account",
              "type": "address"
            },
            {
              "internalType": "uint96",
              "name": "value",
              "type": "uint96"
            }
          ],
          "internalType": "struct LibPart.Part[]",
          "name": "_royalties",
          "type": "tuple[]"
        }
      ],
      "name": "mint",
      "outputs": [
        {
          "internalType": "uint256",
          "name": "tokenId",
          "type": "uint256"
        }
      ],
      "stateMutability": "nonpayable",
      "type": "function"
    },
    {
      "inputs": [],
      "name": "name",
      "outputs": [
        {
          "internalType": "string",
          "name": "",
          "type": "string"
        }
      ],
      "stateMutability": "view",
      "type": "function"
    },
    {
      "inputs": [],
      "name": "owner",
      "outputs": [
        {
          "internalType": "address",
          "name": "",
          "type": "address"
        }
      ],
      "stateMutability": "view",
      "type": "function"
    },
    {
      "inputs": [
        {
          "internalType": "uint256",
          "name": "tokenId",
          "type": "uint256"
        }
      ],
      "name": "ownerOf",
      "outputs": [
        {
          "internalType": "address",
          "name": "",
          "type": "address"
        }
      ],
      "stateMutability": "view",
      "type": "function"
    },
    {
      "inputs": [],
      "name": "renounceOwnership",
      "outputs": [],
      "stateMutability": "nonpayable",
      "type": "function"
    },
    {
      "inputs": [
        {
          "internalType": "uint256",
          "name": "",
          "type": "uint256"
        },
        {
          "internalType": "uint256",
          "name": "",
          "type": "uint256"
        }
      ],
      "name": "royalties",
      "outputs": [
        {
          "internalType": "address payable",
          "name": "account",
          "type": "address"
        },
        {
          "internalType": "uint96",
          "name": "value",
          "type": "uint96"
        }
      ],
      "stateMutability": "view",
      "type": "function"
    },
    {
      "inputs": [
        {
          "internalType": "address",
          "name": "from",
          "type": "address"
        },
        {
          "internalType": "address",
          "name": "to",
          "type": "address"
        },
        {
          "internalType": "uint256",
          "name": "tokenId",
          "type": "uint256"
        }
      ],
      "name": "safeTransferFrom",
      "outputs": [],
      "stateMutability": "nonpayable",
      "type": "function"
    },
    {
      "inputs": [
        {
          "internalType": "address",
          "name": "from",
          "type": "address"
        },
        {
          "internalType": "address",
          "name": "to",
          "type": "address"
        },
        {
          "internalType": "uint256",
          "name": "tokenId",
          "type": "uint256"
        },
        {
          "internalType": "bytes",
          "name": "_data",
          "type": "bytes"
        }
      ],
      "name": "safeTransferFrom",
      "outputs": [],
      "stateMutability": "nonpayable",
      "type": "function"
    },
    {
      "inputs": [
        {
          "internalType": "address",
          "name": "operator",
          "type": "address"
        },
        {
          "internalType": "bool",
          "name": "approved",
          "type": "bool"
        }
      ],
      "name": "setApprovalForAll",
      "outputs": [],
      "stateMutability": "nonpayable",
      "type": "function"
    },
    {
      "inputs": [
        {
          "internalType": "string",
          "name": "uri",
          "type": "string"
        }
      ],
      "name": "setBaseUri",
      "outputs": [],
      "stateMutability": "nonpayable",
      "type": "function"
    },
    {
      "inputs": [
        {
          "internalType": "bool",
          "name": "enabled",
          "type": "bool"
        }
      ],
      "name": "setWhitelistEnabled",
      "outputs": [],
      "stateMutability": "nonpayable",
      "type": "function"
    },
    {
      "inputs": [
        {
          "internalType": "bytes4",
          "name": "interfaceId",
          "type": "bytes4"
        }
      ],
      "name": "supportsInterface",
      "outputs": [
        {
          "internalType": "bool",
          "name": "",
          "type": "bool"
        }
      ],
      "stateMutability": "view",
      "type": "function"
    },
    {
      "inputs": [],
      "name": "symbol",
      "outputs": [
        {
          "internalType": "string",
          "name": "",
          "type": "string"
        }
      ],
      "stateMutability": "view",
      "type": "function"
    },
    {
      "inputs": [
        {
          "internalType": "uint256",
          "name": "tokenId",
          "type": "uint256"
        }
      ],
      "name": "tokenURI",
      "outputs": [
        {
          "internalType": "string",
          "name": "",
          "type": "string"
        }
      ],
      "stateMutability": "view",
      "type": "function"
    },
    {
      "inputs": [
        {
          "internalType": "address",
          "name": "from",
          "type": "address"
        },
        {
          "internalType": "address",
          "name": "to",
          "type": "address"
        },
        {
          "internalType": "uint256",
          "name": "tokenId",
          "type": "uint256"
        }
      ],
      "name": "transferFrom",
      "outputs": [],
      "stateMutability": "nonpayable",
      "type": "function"
    },
    {
      "inputs": [
        {
          "internalType": "address",
          "name": "newOwner",
          "type": "address"
        }
      ],
      "name": "transferOwnership",
      "outputs": [],
      "stateMutability": "nonpayable",
      "type": "function"
    },
    {
      "inputs": [
        {
          "internalType": "address",
          "name": "account",
          "type": "address"
        }
      ],
      "name": "unwhitelist",
      "outputs": [
        {
          "internalType": "bool",
          "name": "success",
          "type": "bool"
        }
      ],
      "stateMutability": "nonpayable",
      "type": "function"
    },
    {
      "inputs": [
        {
          "internalType": "uint256",
          "name": "tokenId",
          "type": "uint256"
        },
        {
          "internalType": "address",
          "name": "from",
          "type": "address"
        },
        {
          "internalType": "address",
          "name": "to",
          "type": "address"
        }
      ],
      "name": "updateRoyaltyAccount",
      "outputs": [],
      "stateMutability": "nonpayable",
      "type": "function"
    },
    {
      "inputs": [
        {
          "internalType": "address",
          "name": "account",
          "type": "address"
        }
      ],
      "name": "whitelist",
      "outputs": [
        {
          "internalType": "bool",
          "name": "success",
          "type": "bool"
        }
      ],
      "stateMutability": "nonpayable",
      "type": "function"
    }
  ],
  "bytecode": "0x60806040526000805460ff60a01b1916600160a01b1790553480156200002457600080fd5b5060405180604001604052806009815260200168496e666c6f7737323160b81b81525060405180604001604052806009815260200168494e464c4f5737323160b81b81525060006200007b620000f960201b60201c565b600080546001600160a01b0319166001600160a01b0383169081178255604051929350917f8be0079c531659141344cd1fd0a4f28419497f9722a3daafe3b4186f6b6457e0908290a3508151620000da906003906020850190620000fd565b508051620000f0906004906020840190620000fd565b505050620001e0565b3390565b8280546200010b90620001a3565b90600052602060002090601f0160209004810192826200012f57600085556200017a565b82601f106200014a57805160ff19168380011785556200017a565b828001600101855582156200017a579182015b828111156200017a5782518255916020019190600101906200015d565b50620001889291506200018c565b5090565b5b808211156200018857600081556001016200018d565b600181811c90821680620001b857607f821691505b60208210811415620001da57634e487b7160e01b600052602260045260246000fd5b50919050565b6126d780620001f06000396000f3fe608060405234801561001057600080fd5b50600436106101a95760003560e01c806373ae3075116100f9578063a0bcfc7f11610097578063bb3bafd611610071578063bb3bafd6146103a6578063c87b56dd146103c6578063e985e9c5146103d9578063f2fde38b146103ec57600080fd5b8063a0bcfc7f1461036d578063a22cb46514610380578063b88d4fde1461039357600080fd5b806395d89b41116100d357806395d89b41146103375780639a5904271461033f5780639abc8320146103525780639b19251a1461035a57600080fd5b806373ae3075146102d95780638924af74146102ec5780638da5cb5b1461032657600080fd5b8063350f08021161016657806342966c681161014057806342966c681461028a5780636352211e1461029d57806370a08231146102b0578063715018a6146102d157600080fd5b8063350f0802146102515780633af32abf1461026457806342842e0e1461027757600080fd5b806301ffc9a7146101ae578063052d9e7e146101d657806306fdde03146101eb578063081812fc14610200578063095ea7b31461022b57806323b872dd1461023e575b600080fd5b6101c16101bc366004612161565b6103ff565b60405190151581526020015b60405180910390f35b6101e96101e4366004612147565b610451565b005b6101f36104a2565b6040516101cd9190612480565b61021361020e366004612304565b610534565b6040516001600160a01b0390911681526020016101cd565b6101e961023936600461211c565b6105bc565b6101e961024c36600461202b565b6106d2565b6101e961025f36600461231c565b610703565b6101c1610272366004611fd7565b610776565b6101e961028536600461202b565b610783565b6101e9610298366004612304565b61079e565b6102136102ab366004612304565b6107aa565b6102c36102be366004611fd7565b610821565b6040519081526020016101cd565b6101e96108a8565b6102c36102e7366004612199565b61091c565b6102ff6102fa36600461235d565b610aa3565b604080516001600160a01b0390931683526001600160601b039091166020830152016101cd565b6000546001600160a01b0316610213565b6101f3610aec565b6101c161034d366004611fd7565b610afb565b6101f3610b73565b6101c1610368366004611fd7565b610c01565b6101e961037b366004612255565b610c78565b6101e961038e3660046120e8565b610cb9565b6101e96103a136600461206b565b610d7e565b6103b96103b4366004612304565b610db6565b6040516101cd919061246d565b6101f36103d4366004612304565b610e45565b6101c16103e7366004611ff3565b610fb4565b6101e96103fa366004611fd7565b610fe2565b60006001600160e01b031982166380ac58cd60e01b148061043057506001600160e01b03198216635b5e139f60e01b145b8061044b57506301ffc9a760e01b6001600160e01b03198316145b92915050565b6000546001600160a01b031633146104845760405162461bcd60e51b815260040161047b906124e5565b60405180910390fd5b60008054911515600160a01b0260ff60a01b19909216919091179055565b6060600380546104b1906125f3565b80601f01602080910402602001604051908101604052809291908181526020018280546104dd906125f3565b801561052a5780601f106104ff5761010080835404028352916020019161052a565b820191906000526020600020905b81548152906001019060200180831161050d57829003601f168201915b5050505050905090565b600061053f826110cc565b6105a05760405162461bcd60e51b815260206004820152602c60248201527f4552433732313a20617070726f76656420717565727920666f72206e6f6e657860448201526b34b9ba32b73a103a37b5b2b760a11b606482015260840161047b565b506000908152600760205260409020546001600160a01b031690565b60006105c7826107aa565b9050806001600160a01b0316836001600160a01b031614156106355760405162461bcd60e51b815260206004820152602160248201527f4552433732313a20617070726f76616c20746f2063757272656e74206f776e656044820152603960f91b606482015260840161047b565b336001600160a01b038216148061065157506106518133610fb4565b6106c35760405162461bcd60e51b815260206004820152603860248201527f4552433732313a20617070726f76652063616c6c6572206973206e6f74206f7760448201527f6e6572206e6f7220617070726f76656420666f7220616c6c0000000000000000606482015260840161047b565b6106cd83836110e9565b505050565b6106dc3382611157565b6106f85760405162461bcd60e51b815260040161047b9061251a565b6106cd838383611219565b336001600160a01b0383161461076b5760405162461bcd60e51b815260206004820152602760248201527f496e666c6f773732313a206f6e6c792063757272656e7420726f79616c7479206044820152661858d8dbdd5b9d60ca1b606482015260840161047b565b6106cd8383836113b9565b600061044b60018361149b565b6106cd83838360405180602001604052806000815250610d7e565b6107a7816114c0565b50565b6000818152600560205260408120546001600160a01b03168061044b5760405162461bcd60e51b815260206004820152602960248201527f4552433732313a206f776e657220717565727920666f72206e6f6e657869737460448201526832b73a103a37b5b2b760b91b606482015260840161047b565b60006001600160a01b03821661088c5760405162461bcd60e51b815260206004820152602a60248201527f4552433732313a2062616c616e636520717565727920666f7220746865207a65604482015269726f206164647265737360b01b606482015260840161047b565b506001600160a01b031660009081526006602052604090205490565b6000546001600160a01b031633146108d25760405162461bcd60e51b815260040161047b906124e5565b600080546040516001600160a01b03909116907f8be0079c531659141344cd1fd0a4f28419497f9722a3daafe3b4186f6b6457e0908390a3600080546001600160a01b0319169055565b60008054600160a01b900460ff16156109865761093a60013361149b565b6109865760405162461bcd60e51b815260206004820152601f60248201527f57686974656c69737461626c653a2077686974656c6973746564206f6e6c7900604482015260640161047b565b60108211156109e35760405162461bcd60e51b815260206004820152602360248201527f496e666c6f773732313a20696e76616c696420726f79616c74696573206c656e6044820152620cee8d60eb1b606482015260840161047b565b6109f1600b80546001019055565b50600b546109ff3382611500565b610a3f8186868080601f01602080910402602001604051908101604052809392919081815260200183838082843760009201919091525061151a92505050565b610a9b818484808060200260200160405190810160405280939291908181526020016000905b82821015610a9157610a826040830286013681900381019061229b565b81526020019060010190610a65565b50505050506115a5565b949350505050565b600a6020528160005260406000208181548110610abf57600080fd5b6000918252602090912001546001600160a01b0381169250600160a01b90046001600160601b0316905082565b6060600480546104b1906125f3565b600080546001600160a01b03163314610b265760405162461bcd60e51b815260040161047b906124e5565b610b31600183611786565b90508015610b6e576040516001600160a01b038316907f51085ddf9ebdded84b76e829eb58c4078e4b5bdf97d9a94723f336039da4679190600090a25b919050565b600c8054610b80906125f3565b80601f0160208091040260200160405190810160405280929190818152602001828054610bac906125f3565b8015610bf95780601f10610bce57610100808354040283529160200191610bf9565b820191906000526020600020905b815481529060010190602001808311610bdc57829003601f168201915b505050505081565b600080546001600160a01b03163314610c2c5760405162461bcd60e51b815260040161047b906124e5565b610c3760018361179b565b90508015610b6e576040516001600160a01b038316907faab7954e9d246b167ef88aeddad35209ca2489d95a8aeb59e288d9b19fae5a5490600090a2919050565b6000546001600160a01b03163314610ca25760405162461bcd60e51b815260040161047b906124e5565b8051610cb590600c906020840190611e82565b5050565b6001600160a01b038216331415610d125760405162461bcd60e51b815260206004820152601960248201527f4552433732313a20617070726f766520746f2063616c6c657200000000000000604482015260640161047b565b3360008181526008602090815260408083206001600160a01b03871680855290835292819020805460ff191686151590811790915590519081529192917f17307eab39ab6107e8899845ad3d59bd9653f200f220920489ca2b5937696c31910160405180910390a35050565b610d883383611157565b610da45760405162461bcd60e51b815260040161047b9061251a565b610db0848484846117b0565b50505050565b6060600a6000838152602001908152602001600020805480602002602001604051908101604052809291908181526020016000905b82821015610e3a57600084815260209081902060408051808201909152908401546001600160a01b0381168252600160a01b90046001600160601b031681830152825260019092019101610deb565b505050509050919050565b6060610e50826110cc565b610eb65760405162461bcd60e51b815260206004820152603160248201527f45524337323155524953746f726167653a2055524920717565727920666f72206044820152703737b732bc34b9ba32b73a103a37b5b2b760791b606482015260840161047b565b60008281526009602052604081208054610ecf906125f3565b80601f0160208091040260200160405190810160405280929190818152602001828054610efb906125f3565b8015610f485780601f10610f1d57610100808354040283529160200191610f48565b820191906000526020600020905b815481529060010190602001808311610f2b57829003601f168201915b505050505090506000610f6660408051602081019091526000815290565b9050805160001415610f79575092915050565b815115610fab578082604051602001610f93929190612401565b60405160208183030381529060405292505050919050565b610a9b846117e3565b6001600160a01b03918216600090815260086020908152604080832093909416825291909152205460ff1690565b6000546001600160a01b0316331461100c5760405162461bcd60e51b815260040161047b906124e5565b6001600160a01b0381166110715760405162461bcd60e51b815260206004820152602660248201527f4f776e61626c653a206e6577206f776e657220697320746865207a65726f206160448201526564647265737360d01b606482015260840161047b565b600080546040516001600160a01b03808516939216917f8be0079c531659141344cd1fd0a4f28419497f9722a3daafe3b4186f6b6457e091a3600080546001600160a01b0319166001600160a01b0392909216919091179055565b6000908152600560205260409020546001600160a01b0316151590565b600081815260076020526040902080546001600160a01b0319166001600160a01b038416908117909155819061111e826107aa565b6001600160a01b03167f8c5be1e5ebec7d5bd14f71427d1e84f3dd0314c0f7b2291e5b200ac8c7c3b92560405160405180910390a45050565b6000611162826110cc565b6111c35760405162461bcd60e51b815260206004820152602c60248201527f4552433732313a206f70657261746f7220717565727920666f72206e6f6e657860448201526b34b9ba32b73a103a37b5b2b760a11b606482015260840161047b565b60006111ce836107aa565b9050806001600160a01b0316846001600160a01b031614806112095750836001600160a01b03166111fe84610534565b6001600160a01b0316145b80610a9b5750610a9b8185610fb4565b826001600160a01b031661122c826107aa565b6001600160a01b0316146112945760405162461bcd60e51b815260206004820152602960248201527f4552433732313a207472616e73666572206f6620746f6b656e2074686174206960448201526839903737ba1037bbb760b91b606482015260840161047b565b6001600160a01b0382166112f65760405162461bcd60e51b8152602060048201526024808201527f4552433732313a207472616e7366657220746f20746865207a65726f206164646044820152637265737360e01b606482015260840161047b565b6113016000826110e9565b6001600160a01b038316600090815260066020526040812080546001929061132a9084906125b0565b90915550506001600160a01b0382166000908152600660205260408120805460019290611358908490612584565b909155505060008181526005602052604080822080546001600160a01b0319166001600160a01b0386811691821790925591518493918716917fddf252ad1be2c89b69c2b068fc378daa952ba7f163c4a11628f55a4df523b3ef91a4505050565b6000838152600a6020526040812054905b81811015611494576000858152600a6020526040902080546001600160a01b03861691908390811061140c57634e487b7160e01b600052603260045260246000fd5b6000918252602090912001546001600160a01b03161415611482576000858152600a6020526040902080548491908390811061145857634e487b7160e01b600052603260045260246000fd5b600091825260209091200180546001600160a01b0319166001600160a01b03929092169190911790555b8061148c8161262e565b9150506113ca565b5050505050565b6001600160a01b038116600090815260018301602052604081205415155b9392505050565b6114c9816118ba565b600081815260096020526040902080546114e2906125f3565b1590506107a75760008181526009602052604081206107a791611f06565b610cb5828260405180602001604052806000815250611955565b611523826110cc565b6115865760405162461bcd60e51b815260206004820152602e60248201527f45524337323155524953746f726167653a2055524920736574206f66206e6f6e60448201526d32bc34b9ba32b73a103a37b5b2b760911b606482015260840161047b565b600082815260096020908152604090912082516106cd92840190611e82565b60005b815181101561177b5760006001600160a01b03168282815181106115dc57634e487b7160e01b600052603260045260246000fd5b6020026020010151600001516001600160a01b031614156116565760405162461bcd60e51b815260206004820152602e60248201527f4162737472616374526f79616c746965733a20526563697069656e742073686f60448201526d1d5b19081899481c1c995cd95b9d60921b606482015260840161047b565b81818151811061167657634e487b7160e01b600052603260045260246000fd5b6020026020010151602001516001600160601b0316600014156116f75760405162461bcd60e51b815260206004820152603360248201527f4162737472616374526f79616c746965733a20526f79616c74792076616c75656044820152722073686f756c6420626520706f73697469766560681b606482015260840161047b565b6000838152600a60205260409020825183908390811061172757634e487b7160e01b600052603260045260246000fd5b6020908102919091018101518254600181018455600093845292829020815191909201516001600160601b0316600160a01b026001600160a01b0390911617910155806117738161262e565b9150506115a8565b50610cb58282611988565b60006114b9836001600160a01b0384166119c5565b60006114b9836001600160a01b038416611adc565b6117bb848484611219565b6117c784848484611b2b565b610db05760405162461bcd60e51b815260040161047b90612493565b60606117ee826110cc565b6118525760405162461bcd60e51b815260206004820152602f60248201527f4552433732314d657461646174613a2055524920717565727920666f72206e6f60448201526e3732bc34b9ba32b73a103a37b5b2b760891b606482015260840161047b565b600061186960408051602081019091526000815290565b9050600081511161188957604051806020016040528060008152506114b9565b8061189384611c35565b6040516020016118a4929190612401565b6040516020818303038152906040529392505050565b60006118c5826107aa565b90506118d26000836110e9565b6001600160a01b03811660009081526006602052604081208054600192906118fb9084906125b0565b909155505060008281526005602052604080822080546001600160a01b0319169055518391906001600160a01b038416907fddf252ad1be2c89b69c2b068fc378daa952ba7f163c4a11628f55a4df523b3ef908390a45050565b61195f8383611d4f565b61196c6000848484611b2b565b6106cd5760405162461bcd60e51b815260040161047b90612493565b7f3fa96d7b6bcbfe71ef171666d84db3cf52fa2d1c8afdb1cc8e486177f208b7df82826040516119b992919061256b565b60405180910390a15050565b60008181526001830160205260408120548015611ad25760006119e96001836125b0565b85549091506000906119fd906001906125b0565b90506000866000018281548110611a2457634e487b7160e01b600052603260045260246000fd5b9060005260206000200154905080876000018481548110611a5557634e487b7160e01b600052603260045260246000fd5b600091825260208083209091019290925582815260018901909152604090208490558654879080611a9657634e487b7160e01b600052603160045260246000fd5b6001900381819060005260206000200160009055905586600101600087815260200190815260200160002060009055600194505050505061044b565b600091505061044b565b6000818152600183016020526040812054611b235750815460018181018455600084815260208082209093018490558454848252828601909352604090209190915561044b565b50600061044b565b60006001600160a01b0384163b15611c2d57604051630a85bd0160e11b81526001600160a01b0385169063150b7a0290611b6f903390899088908890600401612430565b602060405180830381600087803b158015611b8957600080fd5b505af1925050508015611bb9575060408051601f3d908101601f19168201909252611bb69181019061217d565b60015b611c13573d808015611be7576040519150601f19603f3d011682016040523d82523d6000602084013e611bec565b606091505b508051611c0b5760405162461bcd60e51b815260040161047b90612493565b805181602001fd5b6001600160e01b031916630a85bd0160e11b149050610a9b565b506001610a9b565b606081611c595750506040805180820190915260018152600360fc1b602082015290565b8160005b8115611c835780611c6d8161262e565b9150611c7c9050600a8361259c565b9150611c5d565b60008167ffffffffffffffff811115611cac57634e487b7160e01b600052604160045260246000fd5b6040519080825280601f01601f191660200182016040528015611cd6576020820181803683370190505b5090505b8415610a9b57611ceb6001836125b0565b9150611cf8600a86612649565b611d03906030612584565b60f81b818381518110611d2657634e487b7160e01b600052603260045260246000fd5b60200101906001600160f81b031916908160001a905350611d48600a8661259c565b9450611cda565b6001600160a01b038216611da55760405162461bcd60e51b815260206004820181905260248201527f4552433732313a206d696e7420746f20746865207a65726f2061646472657373604482015260640161047b565b611dae816110cc565b15611dfb5760405162461bcd60e51b815260206004820152601c60248201527f4552433732313a20746f6b656e20616c7265616479206d696e74656400000000604482015260640161047b565b6001600160a01b0382166000908152600660205260408120805460019290611e24908490612584565b909155505060008181526005602052604080822080546001600160a01b0319166001600160a01b03861690811790915590518392907fddf252ad1be2c89b69c2b068fc378daa952ba7f163c4a11628f55a4df523b3ef908290a45050565b828054611e8e906125f3565b90600052602060002090601f016020900481019282611eb05760008555611ef6565b82601f10611ec957805160ff1916838001178555611ef6565b82800160010185558215611ef6579182015b82811115611ef6578251825591602001919060010190611edb565b50611f02929150611f3c565b5090565b508054611f12906125f3565b6000825580601f10611f22575050565b601f0160209004906000526020600020908101906107a791905b5b80821115611f025760008155600101611f3d565b600067ffffffffffffffff80841115611f6c57611f6c612689565b604051601f8501601f19908116603f01168101908282118183101715611f9457611f94612689565b81604052809350858152868686011115611fad57600080fd5b858560208301376000602087830101525050509392505050565b80358015158114610b6e57600080fd5b600060208284031215611fe8578081fd5b81356114b98161269f565b60008060408385031215612005578081fd5b82356120108161269f565b915060208301356120208161269f565b809150509250929050565b60008060006060848603121561203f578081fd5b833561204a8161269f565b9250602084013561205a8161269f565b929592945050506040919091013590565b60008060008060808587031215612080578081fd5b843561208b8161269f565b9350602085013561209b8161269f565b925060408501359150606085013567ffffffffffffffff8111156120bd578182fd5b8501601f810187136120cd578182fd5b6120dc87823560208401611f51565b91505092959194509250565b600080604083850312156120fa578182fd5b82356121058161269f565b915061211360208401611fc7565b90509250929050565b6000806040838503121561212e578182fd5b82356121398161269f565b946020939093013593505050565b600060208284031215612158578081fd5b6114b982611fc7565b600060208284031215612172578081fd5b81356114b9816126b4565b60006020828403121561218e578081fd5b81516114b9816126b4565b600080600080604085870312156121ae578384fd5b843567ffffffffffffffff808211156121c5578586fd5b818701915087601f8301126121d8578586fd5b8135818111156121e6578687fd5b8860208285010111156121f7578687fd5b602092830196509450908601359080821115612211578384fd5b818701915087601f830112612224578384fd5b813581811115612232578485fd5b8860208260061b8501011115612246578485fd5b95989497505060200194505050565b600060208284031215612266578081fd5b813567ffffffffffffffff81111561227c578182fd5b8201601f8101841361228c578182fd5b610a9b84823560208401611f51565b6000604082840312156122ac578081fd5b6040516040810181811067ffffffffffffffff821117156122cf576122cf612689565b60405282356122dd8161269f565b815260208301356001600160601b03811681146122f8578283fd5b60208201529392505050565b600060208284031215612315578081fd5b5035919050565b600080600060608486031215612330578081fd5b8335925060208401356123428161269f565b915060408401356123528161269f565b809150509250925092565b6000806040838503121561236f578182fd5b50508035926020909101359150565b6000815180845260208085019450808401835b838110156123ca57815180516001600160a01b031688528301516001600160601b03168388015260409096019590820190600101612391565b509495945050505050565b600081518084526123ed8160208601602086016125c7565b601f01601f19169290920160200192915050565b600083516124138184602088016125c7565b8351908301906124278183602088016125c7565b01949350505050565b6001600160a01b0385811682528416602082015260408101839052608060608201819052600090612463908301846123d5565b9695505050505050565b6020815260006114b9602083018461237e565b6020815260006114b960208301846123d5565b60208082526032908201527f4552433732313a207472616e7366657220746f206e6f6e20455243373231526560408201527131b2b4bb32b91034b6b83632b6b2b73a32b960711b606082015260800190565b6020808252818101527f4f776e61626c653a2063616c6c6572206973206e6f7420746865206f776e6572604082015260600190565b60208082526031908201527f4552433732313a207472616e736665722063616c6c6572206973206e6f74206f6040820152701ddb995c881b9bdc88185c1c1c9bdd9959607a1b606082015260800190565b828152604060208201526000610a9b604083018461237e565b600082198211156125975761259761265d565b500190565b6000826125ab576125ab612673565b500490565b6000828210156125c2576125c261265d565b500390565b60005b838110156125e25781810151838201526020016125ca565b83811115610db05750506000910152565b600181811c9082168061260757607f821691505b6020821081141561262857634e487b7160e01b600052602260045260246000fd5b50919050565b60006000198214156126425761264261265d565b5060010190565b60008261265857612658612673565b500690565b634e487b7160e01b600052601160045260246000fd5b634e487b7160e01b600052601260045260246000fd5b634e487b7160e01b600052604160045260246000fd5b6001600160a01b03811681146107a757600080fd5b6001600160e01b0319811681146107a757600080fdfea164736f6c6343000804000a",
  "linkReferences": {},
  "deployedLinkReferences": {}
}