{
  "_format": "hh-sol-artifact-1",
  "contractName": "Whitelistable",
  "sourceName": "contracts/utils/Whitelistable.sol",
  "abi": [
    {
      "anonymous": false,
      "inputs": [
        {
          "indexed": true,
          "internalType": "address",
          "name": "previousOwner",
          "type": "address"
        },
        {
          "indexed": true,
          "internalType": "address",
          "name": "newOwner",
          "type": "address"
        }
      ],
      "name": "OwnershipTransferred",
      "type": "event"
    },
    {
      "anonymous": false,
      "inputs": [
        {
          "indexed": true,
          "internalType": "address",
          "name": "account",
          "type": "address"
        }
      ],
      "name": "Unwhitelisted",
      "type": "event"
    },
    {
      "anonymous": false,
      "inputs": [
        {
          "indexed": true,
          "internalType": "address",
          "name": "account",
          "type": "address"
        }
      ],
      "name": "Whitelisted",
      "type": "event"
    },
    {
      "inputs": [
        {
          "internalType": "address",
          "name": "account",
          "type": "address"
        }
      ],
      "name": "isWhitelisted",
      "outputs": [
        {
          "internalType": "bool",
          "name": "",
          "type": "bool"
        }
      ],
      "stateMutability": "view",
      "type": "function"
    },
    {
      "inputs": [],
      "name": "owner",
      "outputs": [
        {
          "internalType": "address",
          "name": "",
          "type": "address"
        }
      ],
      "stateMutability": "view",
      "type": "function"
    },
    {
      "inputs": [],
      "name": "renounceOwnership",
      "outputs": [],
      "stateMutability": "nonpayable",
      "type": "function"
    },
    {
      "inputs": [
        {
          "internalType": "bool",
          "name": "enabled",
          "type": "bool"
        }
      ],
      "name": "setWhitelistEnabled",
      "outputs": [],
      "stateMutability": "nonpayable",
      "type": "function"
    },
    {
      "inputs": [
        {
          "internalType": "address",
          "name": "newOwner",
          "type": "address"
        }
      ],
      "name": "transferOwnership",
      "outputs": [],
      "stateMutability": "nonpayable",
      "type": "function"
    },
    {
      "inputs": [
        {
          "internalType": "address",
          "name": "account",
          "type": "address"
        }
      ],
      "name": "unwhitelist",
      "outputs": [
        {
          "internalType": "bool",
          "name": "success",
          "type": "bool"
        }
      ],
      "stateMutability": "nonpayable",
      "type": "function"
    },
    {
      "inputs": [
        {
          "internalType": "address",
          "name": "account",
          "type": "address"
        }
      ],
      "name": "whitelist",
      "outputs": [
        {
          "internalType": "bool",
          "name": "success",
          "type": "bool"
        }
      ],
      "stateMutability": "nonpayable",
      "type": "function"
    }
  ],
  "bytecode": "0x60806040526000805460ff60a01b1916600160a01b17905534801561002357600080fd5b50600080546001600160a01b031916339081178255604051909182917f8be0079c531659141344cd1fd0a4f28419497f9722a3daafe3b4186f6b6457e0908290a35061062d806100746000396000f3fe608060405234801561001057600080fd5b506004361061007d5760003560e01c80638da5cb5b1161005b5780638da5cb5b146100c75780639a590427146100e25780639b19251a146100f5578063f2fde38b1461010857600080fd5b8063052d9e7e146100825780633af32abf14610097578063715018a6146100bf575b600080fd5b6100956100903660046105a8565b61011b565b005b6100aa6100a5366004610581565b61016c565b60405190151581526020015b60405180910390f35b61009561017f565b6000546040516001600160a01b0390911681526020016100b6565b6100aa6100f0366004610581565b6101f3565b6100aa610103366004610581565b61026b565b610095610116366004610581565b6102e2565b6000546001600160a01b0316331461014e5760405162461bcd60e51b8152600401610145906105c8565b60405180910390fd5b60008054911515600160a01b0260ff60a01b19909216919091179055565b60006101796001836103cc565b92915050565b6000546001600160a01b031633146101a95760405162461bcd60e51b8152600401610145906105c8565b600080546040516001600160a01b03909116907f8be0079c531659141344cd1fd0a4f28419497f9722a3daafe3b4186f6b6457e0908390a3600080546001600160a01b0319169055565b600080546001600160a01b0316331461021e5760405162461bcd60e51b8152600401610145906105c8565b6102296001836103f1565b90508015610266576040516001600160a01b038316907f51085ddf9ebdded84b76e829eb58c4078e4b5bdf97d9a94723f336039da4679190600090a25b919050565b600080546001600160a01b031633146102965760405162461bcd60e51b8152600401610145906105c8565b6102a1600183610406565b90508015610266576040516001600160a01b038316907faab7954e9d246b167ef88aeddad35209ca2489d95a8aeb59e288d9b19fae5a5490600090a2919050565b6000546001600160a01b0316331461030c5760405162461bcd60e51b8152600401610145906105c8565b6001600160a01b0381166103715760405162461bcd60e51b815260206004820152602660248201527f4f776e61626c653a206e6577206f776e657220697320746865207a65726f206160448201526564647265737360d01b6064820152608401610145565b600080546040516001600160a01b03808516939216917f8be0079c531659141344cd1fd0a4f28419497f9722a3daafe3b4186f6b6457e091a3600080546001600160a01b0319166001600160a01b0392909216919091179055565b6001600160a01b038116600090815260018301602052604081205415155b9392505050565b60006103ea836001600160a01b03841661041b565b60006103ea836001600160a01b038416610532565b6000818152600183016020526040812054801561052857600061043f6001836105fd565b8554909150600090610453906001906105fd565b9050600086600001828154811061047a57634e487b7160e01b600052603260045260246000fd5b90600052602060002001549050808760000184815481106104ab57634e487b7160e01b600052603260045260246000fd5b6000918252602080832090910192909255828152600189019091526040902084905586548790806104ec57634e487b7160e01b600052603160045260246000fd5b60019003818190600052602060002001600090559055866001016000878152602001908152602001600020600090556001945050505050610179565b6000915050610179565b600081815260018301602052604081205461057957508154600181810184556000848152602080822090930184905584548482528286019093526040902091909155610179565b506000610179565b600060208284031215610592578081fd5b81356001600160a01b03811681146103ea578182fd5b6000602082840312156105b9578081fd5b813580151581146103ea578182fd5b6020808252818101527f4f776e61626c653a2063616c6c6572206973206e6f7420746865206f776e6572604082015260600190565b60008282101561061b57634e487b7160e01b81526011600452602481fd5b50039056fea164736f6c6343000804000a",
  "linkReferences": {},
  "deployedLinkReferences": {}
}